{
  "contractName": "Battle",
  "abi": [
    {
      "anonymous": false,
      "inputs": [
        {
          "components": [
            {
              "internalType": "uint256",
              "name": "monsterId",
              "type": "uint256"
            },
            {
              "internalType": "string",
              "name": "monsterName",
              "type": "string"
            },
            {
              "internalType": "uint256",
              "name": "number",
              "type": "uint256"
            },
            {
              "internalType": "uint256",
              "name": "level",
              "type": "uint256"
            },
            {
              "internalType": "bool",
              "name": "isOwned",
              "type": "bool"
            },
            {
              "internalType": "uint256",
              "name": "winCount",
              "type": "uint256"
            }
          ],
          "indexed": false,
          "internalType": "struct CreateMonster.Monster",
          "name": "winner",
          "type": "tuple"
        },
        {
          "components": [
            {
              "internalType": "uint256",
              "name": "monsterId",
              "type": "uint256"
            },
            {
              "internalType": "string",
              "name": "monsterName",
              "type": "string"
            },
            {
              "internalType": "uint256",
              "name": "number",
              "type": "uint256"
            },
            {
              "internalType": "uint256",
              "name": "level",
              "type": "uint256"
            },
            {
              "internalType": "bool",
              "name": "isOwned",
              "type": "bool"
            },
            {
              "internalType": "uint256",
              "name": "winCount",
              "type": "uint256"
            }
          ],
          "indexed": false,
          "internalType": "struct CreateMonster.Monster",
          "name": "loser",
          "type": "tuple"
        }
      ],
      "name": "BattleResult",
      "type": "event"
    },
    {
      "anonymous": false,
      "inputs": [
        {
          "indexed": false,
          "internalType": "uint256",
          "name": "level",
          "type": "uint256"
        }
      ],
      "name": "monsterLevelUp",
      "type": "event"
    },
    {
      "anonymous": false,
      "inputs": [
        {
          "indexed": false,
          "internalType": "uint32",
          "name": "monsterId",
          "type": "uint32"
        },
        {
          "indexed": false,
          "internalType": "string",
          "name": "monsterName",
          "type": "string"
        },
        {
          "indexed": false,
          "internalType": "uint256",
          "name": "level",
          "type": "uint256"
        }
      ],
      "name": "newMonster",
      "type": "event"
    },
    {
      "constant": false,
      "inputs": [
        {
          "internalType": "uint256",
          "name": "_id",
          "type": "uint256"
        }
      ],
      "name": "LevelUp",
      "outputs": [],
      "payable": true,
      "stateMutability": "payable",
      "type": "function"
    },
    {
      "constant": true,
      "inputs": [
        {
          "internalType": "address",
          "name": "_owner",
          "type": "address"
        }
      ],
      "name": "MyMonster",
      "outputs": [
        {
          "internalType": "uint256[]",
          "name": "",
          "type": "uint256[]"
        }
      ],
      "payable": false,
      "stateMutability": "view",
      "type": "function"
    },
    {
      "constant": false,
      "inputs": [
        {
          "internalType": "uint256",
          "name": "_id",
          "type": "uint256"
        },
        {
          "internalType": "uint256",
          "name": "_amount",
          "type": "uint256"
        }
      ],
      "name": "SellMonster",
      "outputs": [],
      "payable": true,
      "stateMutability": "payable",
      "type": "function"
    },
    {
      "constant": false,
      "inputs": [
        {
          "internalType": "uint256",
          "name": "_id",
          "type": "uint256"
        },
        {
          "internalType": "uint256",
          "name": "_amount",
          "type": "uint256"
        }
      ],
      "name": "_BuyMonster",
      "outputs": [],
      "payable": true,
      "stateMutability": "payable",
      "type": "function"
    },
    {
      "constant": false,
      "inputs": [
        {
          "internalType": "string",
          "name": "_monsterName",
          "type": "string"
        }
      ],
      "name": "_CreateMonster",
      "outputs": [],
      "payable": false,
      "stateMutability": "nonpayable",
      "type": "function"
    },
    {
      "constant": false,
      "inputs": [
        {
          "internalType": "string",
          "name": "_monsterName",
          "type": "string"
        }
      ],
      "name": "_RegisterMonster",
      "outputs": [],
      "payable": false,
      "stateMutability": "nonpayable",
      "type": "function"
    },
    {
      "constant": true,
      "inputs": [
        {
          "internalType": "string",
          "name": "_monsterName",
          "type": "string"
        }
      ],
      "name": "_getNumber",
      "outputs": [
        {
          "internalType": "uint256",
          "name": "",
          "type": "uint256"
        }
      ],
      "payable": false,
      "stateMutability": "view",
      "type": "function"
    },
    {
      "constant": true,
      "inputs": [],
      "name": "monsterCount",
      "outputs": [
        {
          "internalType": "uint32",
          "name": "",
          "type": "uint32"
        }
      ],
      "payable": false,
      "stateMutability": "view",
      "type": "function"
    },
    {
      "constant": true,
      "inputs": [
        {
          "internalType": "uint256",
          "name": "",
          "type": "uint256"
        }
      ],
      "name": "monsterToOwner",
      "outputs": [
        {
          "internalType": "address",
          "name": "",
          "type": "address"
        }
      ],
      "payable": false,
      "stateMutability": "view",
      "type": "function"
    },
    {
      "constant": true,
      "inputs": [
        {
          "internalType": "uint256",
          "name": "",
          "type": "uint256"
        }
      ],
      "name": "monsters",
      "outputs": [
        {
          "internalType": "uint256",
          "name": "monsterId",
          "type": "uint256"
        },
        {
          "internalType": "string",
          "name": "monsterName",
          "type": "string"
        },
        {
          "internalType": "uint256",
          "name": "number",
          "type": "uint256"
        },
        {
          "internalType": "uint256",
          "name": "level",
          "type": "uint256"
        },
        {
          "internalType": "bool",
          "name": "isOwned",
          "type": "bool"
        },
        {
          "internalType": "uint256",
          "name": "winCount",
          "type": "uint256"
        }
      ],
      "payable": false,
      "stateMutability": "view",
      "type": "function"
    },
    {
      "constant": true,
      "inputs": [],
      "name": "owner",
      "outputs": [
        {
          "internalType": "address payable",
          "name": "",
          "type": "address"
        }
      ],
      "payable": false,
      "stateMutability": "view",
      "type": "function"
    },
    {
      "constant": false,
      "inputs": [
        {
          "internalType": "uint256",
          "name": "myMonsterId",
          "type": "uint256"
        },
        {
          "internalType": "uint256",
          "name": "rivalId",
          "type": "uint256"
        },
        {
          "internalType": "uint256",
          "name": "myPower",
          "type": "uint256"
        },
        {
          "internalType": "uint256",
          "name": "rivalGaurd",
          "type": "uint256"
        }
      ],
      "name": "_Battle",
      "outputs": [],
      "payable": false,
      "stateMutability": "nonpayable",
      "type": "function"
    }
  ],
  "bytecode": "0x60806040526611c37937e0800060015560006006556046600755602860085534801561002a57600080fd5b506119d98061003a6000396000f3fe6080604052600436106100a75760003560e01c80639f6b95ff116100645780639f6b95ff146101b2578063a5e4b156146101ce578063b693bff8146101f7578063c0576b7314610222578063c21ca27514610264578063ed7724d5146102a1576100a7565b806344241ca5146100ac5780635dc1d1bf146100e95780636a1b6f911461010557806382d6836914610121578063864c3dd91461015e5780638da5cb5b14610187575b600080fd5b3480156100b857600080fd5b506100d360048036036100ce91908101906110e5565b6102ca565b6040516100e09190611640565b60405180910390f35b61010360048036036100fe919081019061114f565b6102fd565b005b61011f600480360361011a9190810190611126565b6103eb565b005b34801561012d57600080fd5b50610148600480360361014391908101906110bc565b610461565b60405161015591906115c7565b60405180910390f35b34801561016a57600080fd5b50610185600480360361018091908101906110e5565b610578565b005b34801561019357600080fd5b5061019c610824565b6040516101a991906115ac565b60405180910390f35b6101cc60048036036101c7919081019061114f565b61084a565b005b3480156101da57600080fd5b506101f560048036036101f091908101906110e5565b610953565b005b34801561020357600080fd5b5061020c610ba6565b60405161021991906116c3565b60405180910390f35b34801561022e57600080fd5b5061024960048036036102449190810190611126565b610bbb565b60405161025b9695949392919061165b565b60405180910390f35b34801561027057600080fd5b5061028b60048036036102869190810190611126565b610c9c565b6040516102989190611591565b60405180910390f35b3480156102ad57600080fd5b506102c860048036036102c3919081019061118b565b610ccf565b005b6000816040516020016102dd919061153d565b6040516020818303038152906040528051906020012060001c9050919050565b60006003600084815260200190815260200160002060006101000a81548173ffffffffffffffffffffffffffffffffffffffff021916908373ffffffffffffffffffffffffffffffffffffffff1602179055503373ffffffffffffffffffffffffffffffffffffffff166108fc829081150290604051600060405180830381858888f19350505050158015610396573d6000803e3d6000fd5b50600460003373ffffffffffffffffffffffffffffffffffffffff1673ffffffffffffffffffffffffffffffffffffffff16815260200190815260200160002060008154809291906001900391905055505050565b60026000828152602001908152602001600020600301600081548092919060010191905055507f31c3816a4cce5f0190c68f97c85f3a1817fcc6e3e20111f014a38546e60e46f660026000838152602001908152602001600020600301546040516104569190611640565b60405180910390a150565b6060806000809054906101000a900463ffffffff1663ffffffff166040519080825280602002602001820160405280156104aa5781602001602082028038833980820191505090505b50905060008090506000600190505b6000809054906101000a900463ffffffff1663ffffffff16811161056d578473ffffffffffffffffffffffffffffffffffffffff166003600083815260200190815260200160002060009054906101000a900473ffffffffffffffffffffffffffffffffffffffff1673ffffffffffffffffffffffffffffffffffffffff161415610560578183828151811061054b57fe5b60200260200101818152505081806001019250505b80806001019150506104b9565b508192505050919050565b60048060003373ffffffffffffffffffffffffffffffffffffffff1673ffffffffffffffffffffffffffffffffffffffff16815260200190815260200160002054106105f9576040517f08c379a00000000000000000000000000000000000000000000000000000000081526004016105f0906115e9565b60405180910390fd5b60008081819054906101000a900463ffffffff168092919060010191906101000a81548163ffffffff021916908363ffffffff16021790555050600061063e826102ca565b90506040518060c001604052806000809054906101000a900463ffffffff1663ffffffff168152602001838152602001828152602001600181526020016001151581526020016000815250600260008060009054906101000a900463ffffffff1663ffffffff1681526020019081526020016000206000820151816000015560208201518160010190805190602001906106d9929190610f99565b50604082015181600201556060820151816003015560808201518160040160006101000a81548160ff02191690831515021790555060a0820151816005015590505033600360008060009054906101000a900463ffffffff1663ffffffff16815260200190815260200160002060006101000a81548173ffffffffffffffffffffffffffffffffffffffff021916908373ffffffffffffffffffffffffffffffffffffffff160217905550600460003373ffffffffffffffffffffffffffffffffffffffff1673ffffffffffffffffffffffffffffffffffffffff168152602001908152602001600020600081548092919060010191905055507f7beba125339a9db22e6314c8b609dafb7531322be191d4da37c91d62043e7c236000809054906101000a900463ffffffff16836001604051610818939291906116de565b60405180910390a15050565b600560009054906101000a900473ffffffffffffffffffffffffffffffffffffffff1681565b336003600084815260200190815260200160002060006101000a81548173ffffffffffffffffffffffffffffffffffffffff021916908373ffffffffffffffffffffffffffffffffffffffff160217905550600460007365ffed37eb64b33c3ac09ff181405dfa3e96205e73ffffffffffffffffffffffffffffffffffffffff1673ffffffffffffffffffffffffffffffffffffffff1681526020019081526020016000206000815480929190600190039190505550600460003373ffffffffffffffffffffffffffffffffffffffff1673ffffffffffffffffffffffffffffffffffffffff168152602001908152602001600020600081548092919060010191905055505050565b60008081819054906101000a900463ffffffff168092919060010191906101000a81548163ffffffff021916908363ffffffff160217905550506000610998826102ca565b90506040518060c001604052806000809054906101000a900463ffffffff1663ffffffff168152602001838152602001828152602001600181526020016000151581526020016000815250600260008060009054906101000a900463ffffffff1663ffffffff168152602001908152602001600020600082015181600001556020820151816001019080519060200190610a33929190610f99565b50604082015181600201556060820151816003015560808201518160040160006101000a81548160ff02191690831515021790555060a082015181600501559050507365ffed37eb64b33c3ac09ff181405dfa3e96205e600360008060009054906101000a900463ffffffff1663ffffffff16815260200190815260200160002060006101000a81548173ffffffffffffffffffffffffffffffffffffffff021916908373ffffffffffffffffffffffffffffffffffffffff160217905550600460007365ffed37eb64b33c3ac09ff181405dfa3e96205e73ffffffffffffffffffffffffffffffffffffffff1673ffffffffffffffffffffffffffffffffffffffff168152602001908152602001600020600081548092919060010191905055507f7beba125339a9db22e6314c8b609dafb7531322be191d4da37c91d62043e7c236000809054906101000a900463ffffffff16836001604051610b9a939291906116de565b60405180910390a15050565b6000809054906101000a900463ffffffff1681565b6002602052806000526040600020600091509050806000015490806001018054600181600116156101000203166002900480601f016020809104026020016040519081016040528092919081815260200182805460018160011615610100020316600290048015610c6d5780601f10610c4257610100808354040283529160200191610c6d565b820191906000526020600020905b815481529060010190602001808311610c5057829003601f168201915b5050505050908060020154908060030154908060040160009054906101000a900460ff16908060050154905086565b60036020528060005260406000206000915054906101000a900473ffffffffffffffffffffffffffffffffffffffff1681565b6000610cdb6064610f45565b9050818310158015610cef57508060075410155b15610da1576002600086815260200190815260200160002060050160008154809291906001019190505550600560026000878152602001908152602001600020600301600082825401925050819055507f3f87bb7ebad49fb9fe9d3717d5074f10f60aaa1cf96e197ae77fe1d919e58c6d6002600087815260200190815260200160002060026000878152602001908152602001600020604051610d94929190611609565b60405180910390a1610f3e565b818310158015610db357508060075411155b15610e1a577f3f87bb7ebad49fb9fe9d3717d5074f10f60aaa1cf96e197ae77fe1d919e58c6d6002600086815260200190815260200160002060026000888152602001908152602001600020604051610e0d929190611609565b60405180910390a1610f3d565b818311158015610e2c57508060085410155b15610ede576002600086815260200190815260200160002060050160008154809291906001019190505550600560026000878152602001908152602001600020600301600082825401925050819055507f3f87bb7ebad49fb9fe9d3717d5074f10f60aaa1cf96e197ae77fe1d919e58c6d6002600087815260200190815260200160002060026000878152602001908152602001600020604051610ed1929190611609565b60405180910390a1610f3c565b7f3f87bb7ebad49fb9fe9d3717d5074f10f60aaa1cf96e197ae77fe1d919e58c6d6002600086815260200190815260200160002060026000888152602001908152602001600020604051610f33929190611609565b60405180910390a15b5b5b5050505050565b6000600660008154809291906001019190505550814233600654604051602001610f7193929190611554565b6040516020818303038152906040528051906020012060001c81610f9157fe5b069050919050565b828054600181600116156101000203166002900490600052602060002090601f016020900481019282601f10610fda57805160ff1916838001178555611008565b82800160010185558215611008579182015b82811115611007578251825591602001919060010190610fec565b5b5090506110159190611019565b5090565b61103b91905b8082111561103757600081600090555060010161101f565b5090565b90565b60008135905061104d81611968565b92915050565b600082601f83011261106457600080fd5b813561107761107282611749565b61171c565b9150808252602083016020830185838301111561109357600080fd5b61109e838284611899565b50505092915050565b6000813590506110b68161197f565b92915050565b6000602082840312156110ce57600080fd5b60006110dc8482850161103e565b91505092915050565b6000602082840312156110f757600080fd5b600082013567ffffffffffffffff81111561111157600080fd5b61111d84828501611053565b91505092915050565b60006020828403121561113857600080fd5b6000611146848285016110a7565b91505092915050565b6000806040838503121561116257600080fd5b6000611170858286016110a7565b9250506020611181858286016110a7565b9150509250929050565b600080600080608085870312156111a157600080fd5b60006111af878288016110a7565b94505060206111c0878288016110a7565b93505060406111d1878288016110a7565b92505060606111e2878288016110a7565b91505092959194509250565b60006111fa83836114f9565b60208301905092915050565b61120f8161182f565b82525050565b6112266112218261182f565b61190f565b82525050565b6112358161181d565b82525050565b60006112468261179a565b61125081856117c8565b935061125b83611775565b8060005b8381101561128c57815161127388826111ee565b975061127e836117bb565b92505060018101905061125f565b5085935050505092915050565b6112a281611841565b82525050565b6112b181611841565b82525050565b6112c081611887565b82525050565b60006112d1826117b0565b6112db81856117ea565b93506112eb8185602086016118a8565b6112f48161193d565b840191505092915050565b600061130a826117b0565b61131481856117fb565b93506113248185602086016118a8565b80840191505092915050565b600061133b826117a5565b61134581856117ea565b93506113558185602086016118a8565b61135e8161193d565b840191505092915050565b60008154600181166000811461138657600181146113ac576113f0565b607f600283041661139781876117d9565b955060ff1983168652602086019350506113f0565b600282046113ba81876117d9565b95506113c585611785565b60005b828110156113e7578154818901526001820191506020810190506113c8565b80880195505050505b505092915050565b6000611405601c836117ea565b91507f596f752063616e206e6f742063726561746520616e79206d6f72652e000000006000830152602082019050919050565b600060c08301600080840154905061144f816118f5565b61145c60008701826114f9565b506001840185830360208701526114738382611369565b92505060028401549050611486816118f5565b61149360408701826114f9565b50600384015490506114a4816118f5565b6114b160608701826114f9565b50600484015490506114c2816118db565b6114cf6080870182611299565b50600584015490506114e0816118f5565b6114ed60a08701826114f9565b50819250505092915050565b6115028161186d565b82525050565b6115118161186d565b82525050565b6115286115238261186d565b611933565b82525050565b61153781611877565b82525050565b600061154982846112ff565b915081905092915050565b60006115608286611517565b6020820191506115708285611215565b6014820191506115808284611517565b602082019150819050949350505050565b60006020820190506115a6600083018461122c565b92915050565b60006020820190506115c16000830184611206565b92915050565b600060208201905081810360008301526115e1818461123b565b905092915050565b60006020820190508181036000830152611602816113f8565b9050919050565b600060408201905081810360008301526116238185611438565b905081810360208301526116378184611438565b90509392505050565b60006020820190506116556000830184611508565b92915050565b600060c0820190506116706000830189611508565b81810360208301526116828188611330565b90506116916040830187611508565b61169e6060830186611508565b6116ab60808301856112a8565b6116b860a0830184611508565b979650505050505050565b60006020820190506116d8600083018461152e565b92915050565b60006060820190506116f3600083018661152e565b818103602083015261170581856112c6565b905061171460408301846112b7565b949350505050565b6000604051905081810181811067ffffffffffffffff8211171561173f57600080fd5b8060405250919050565b600067ffffffffffffffff82111561176057600080fd5b601f19601f8301169050602081019050919050565b6000819050602082019050919050565b60008190508160005260206000209050919050565b600081519050919050565b600081519050919050565b600081519050919050565b6000602082019050919050565b600082825260208201905092915050565b600082825260208201905092915050565b600082825260208201905092915050565b600081905092915050565b600060ff82169050919050565b6000819050919050565b60006118288261184d565b9050919050565b600061183a8261184d565b9050919050565b60008115159050919050565b600073ffffffffffffffffffffffffffffffffffffffff82169050919050565b6000819050919050565b600063ffffffff82169050919050565b60006118928261186d565b9050919050565b82818337600083830152505050565b60005b838110156118c65780820151818401526020810190506118ab565b838111156118d5576000848401525b50505050565b60006118ee6118e98361195b565b611806565b9050919050565b60006119086119038361195b565b611813565b9050919050565b600061191a82611921565b9050919050565b600061192c8261194e565b9050919050565b6000819050919050565b6000601f19601f8301169050919050565b60008160601b9050919050565b60008160001c9050919050565b6119718161181d565b811461197c57600080fd5b50565b6119888161186d565b811461199357600080fd5b5056fea365627a7a723158200aff75b0735300ffb21f48f867b1ca37610c00eed45bbe0b3f304ec83e6100096c6578706572696d656e74616cf564736f6c63430005100040",
  "source": "pragma solidity >=0.4.21 <0.7.0;\npragma experimental ABIEncoderV2;\n\nimport \"./BuyMonster.sol\";\n\ncontract Battle is BuyMonster {\n    uint randNonce = 0;\n    uint attackVictoryProbability = 70;\n    uint attackVictoryProbability2 = 40;\n    event BattleResult(Monster winner, Monster loser);\n\n    function randMod(uint _modulus) internal returns(uint) {\n        randNonce++;\n        return uint(keccak256(abi.encodePacked(now, msg.sender, randNonce))) % _modulus;\n    }\n\n    function _Battle(uint myMonsterId, uint rivalId, uint myPower, uint rivalGaurd) public {\n        uint rand = randMod(100);\n        if(myPower >= rivalGaurd && attackVictoryProbability >= rand){\n            monsters[myMonsterId].winCount++;\n            monsters[myMonsterId].level += 5;\n            emit BattleResult(monsters[myMonsterId], monsters[rivalId]);\n        }else if(myPower >= rivalGaurd && attackVictoryProbability <= rand){\n            emit BattleResult(monsters[rivalId], monsters[myMonsterId]);\n        }else if(myPower <= rivalGaurd && attackVictoryProbability2 >= rand){\n            monsters[myMonsterId].winCount++;\n            monsters[myMonsterId].level += 5;\n            emit BattleResult(monsters[myMonsterId], monsters[rivalId]);\n        }else{\n            emit BattleResult(monsters[rivalId], monsters[myMonsterId]);\n        }\n    }\n}",
  "sourcePath": "/Users/hondaao/Desktop/solidity/truffle_box/contracts/Battle.sol",
  "compiler": {
    "name": "solc",
    "version": "0.5.16+commit.9c3226ce.Emscripten.clang"
  },
  "schemaVersion": "3.3.3",
  "updatedAt": "2021-01-10T11:20:14.543Z",
  "networkType": "ethereum",
  "devdoc": {
    "methods": {}
  },
  "userdoc": {
    "methods": {}
  }
}