{
  "contractName": "BuyMonster",
  "abi": [
    {
      "anonymous": false,
      "inputs": [
        {
          "indexed": false,
          "internalType": "uint256",
          "name": "level",
          "type": "uint256"
        }
      ],
      "name": "monsterLevelUp",
      "type": "event"
    },
    {
      "anonymous": false,
      "inputs": [
        {
          "indexed": false,
          "internalType": "uint32",
          "name": "monsterId",
          "type": "uint32"
        },
        {
          "indexed": false,
          "internalType": "string",
          "name": "monsterName",
          "type": "string"
        },
        {
          "indexed": false,
          "internalType": "uint256",
          "name": "level",
          "type": "uint256"
        }
      ],
      "name": "newMonster",
      "type": "event"
    },
    {
      "constant": false,
      "inputs": [
        {
          "internalType": "uint256",
          "name": "_id",
          "type": "uint256"
        }
      ],
      "name": "LevelUp",
      "outputs": [],
      "payable": true,
      "stateMutability": "payable",
      "type": "function"
    },
    {
      "constant": true,
      "inputs": [
        {
          "internalType": "address",
          "name": "_owner",
          "type": "address"
        }
      ],
      "name": "MyMonster",
      "outputs": [
        {
          "internalType": "uint256[]",
          "name": "",
          "type": "uint256[]"
        }
      ],
      "payable": false,
      "stateMutability": "view",
      "type": "function"
    },
    {
      "constant": false,
      "inputs": [
        {
          "internalType": "string",
          "name": "_monsterName",
          "type": "string"
        }
      ],
      "name": "_CreateMonster",
      "outputs": [],
      "payable": false,
      "stateMutability": "nonpayable",
      "type": "function"
    },
    {
      "constant": false,
      "inputs": [
        {
          "internalType": "string",
          "name": "_monsterName",
          "type": "string"
        }
      ],
      "name": "_RegisterMonster",
      "outputs": [],
      "payable": false,
      "stateMutability": "nonpayable",
      "type": "function"
    },
    {
      "constant": true,
      "inputs": [
        {
          "internalType": "string",
          "name": "_monsterName",
          "type": "string"
        }
      ],
      "name": "_getNumber",
      "outputs": [
        {
          "internalType": "uint256",
          "name": "",
          "type": "uint256"
        }
      ],
      "payable": false,
      "stateMutability": "view",
      "type": "function"
    },
    {
      "constant": true,
      "inputs": [],
      "name": "monsterCount",
      "outputs": [
        {
          "internalType": "uint32",
          "name": "",
          "type": "uint32"
        }
      ],
      "payable": false,
      "stateMutability": "view",
      "type": "function"
    },
    {
      "constant": true,
      "inputs": [
        {
          "internalType": "uint256",
          "name": "",
          "type": "uint256"
        }
      ],
      "name": "monsterToOwner",
      "outputs": [
        {
          "internalType": "address",
          "name": "",
          "type": "address"
        }
      ],
      "payable": false,
      "stateMutability": "view",
      "type": "function"
    },
    {
      "constant": true,
      "inputs": [
        {
          "internalType": "uint256",
          "name": "",
          "type": "uint256"
        }
      ],
      "name": "monsters",
      "outputs": [
        {
          "internalType": "uint256",
          "name": "monsterId",
          "type": "uint256"
        },
        {
          "internalType": "string",
          "name": "monsterName",
          "type": "string"
        },
        {
          "internalType": "uint256",
          "name": "number",
          "type": "uint256"
        },
        {
          "internalType": "uint256",
          "name": "level",
          "type": "uint256"
        },
        {
          "internalType": "bool",
          "name": "isOwned",
          "type": "bool"
        },
        {
          "internalType": "uint256",
          "name": "winCount",
          "type": "uint256"
        }
      ],
      "payable": false,
      "stateMutability": "view",
      "type": "function"
    },
    {
      "constant": true,
      "inputs": [],
      "name": "owner",
      "outputs": [
        {
          "internalType": "address payable",
          "name": "",
          "type": "address"
        }
      ],
      "payable": false,
      "stateMutability": "view",
      "type": "function"
    },
    {
      "constant": false,
      "inputs": [
        {
          "internalType": "uint256",
          "name": "_id",
          "type": "uint256"
        },
        {
          "internalType": "uint256",
          "name": "_amount",
          "type": "uint256"
        }
      ],
      "name": "_BuyMonster",
      "outputs": [],
      "payable": true,
      "stateMutability": "payable",
      "type": "function"
    },
    {
      "constant": false,
      "inputs": [
        {
          "internalType": "uint256",
          "name": "_id",
          "type": "uint256"
        },
        {
          "internalType": "uint256",
          "name": "_amount",
          "type": "uint256"
        }
      ],
      "name": "SellMonster",
      "outputs": [],
      "payable": true,
      "stateMutability": "payable",
      "type": "function"
    }
  ],
  "bytecode": "0x60806040526611c37937e0800060015534801561001b57600080fd5b5061128c8061002b6000396000f3fe60806040526004361061009c5760003560e01c80638da5cb5b116100645780638da5cb5b146103515780639f6b95ff146103a8578063a5e4b156146103e0578063b693bff8146104a8578063c0576b73146104df578063c21ca275146105ba5761009c565b806344241ca5146100a15780635dc1d1bf1461017d5780636a1b6f91146101b557806382d68369146101e3578063864c3dd914610289575b600080fd5b3480156100ad57600080fd5b50610167600480360360208110156100c457600080fd5b81019080803590602001906401000000008111156100e157600080fd5b8201836020820111156100f357600080fd5b8035906020019184600183028401116401000000008311171561011557600080fd5b91908080601f016020809104026020016040519081016040528093929190818152602001838380828437600081840152601f19601f820116905080830192505050505050509192919290505050610635565b6040518082815260200191505060405180910390f35b6101b36004803603604081101561019357600080fd5b8101908080359060200190929190803590602001909291905050506106b3565b005b6101e1600480360360208110156101cb57600080fd5b81019080803590602001909291905050506107a1565b005b3480156101ef57600080fd5b506102326004803603602081101561020657600080fd5b81019080803573ffffffffffffffffffffffffffffffffffffffff169060200190929190505050610817565b6040518080602001828103825283818151815260200191508051906020019060200280838360005b8381101561027557808201518184015260208101905061025a565b505050509050019250505060405180910390f35b34801561029557600080fd5b5061034f600480360360208110156102ac57600080fd5b81019080803590602001906401000000008111156102c957600080fd5b8201836020820111156102db57600080fd5b803590602001918460018302840111640100000000831117156102fd57600080fd5b91908080601f016020809104026020016040519081016040528093929190818152602001838380828437600081840152601f19601f82011690508083019250505050505050919291929050505061092e565b005b34801561035d57600080fd5b50610366610c8a565b604051808273ffffffffffffffffffffffffffffffffffffffff1673ffffffffffffffffffffffffffffffffffffffff16815260200191505060405180910390f35b6103de600480360360408110156103be57600080fd5b810190808035906020019092919080359060200190929190505050610cb0565b005b3480156103ec57600080fd5b506104a66004803603602081101561040357600080fd5b810190808035906020019064010000000081111561042057600080fd5b82018360208201111561043257600080fd5b8035906020019184600183028401116401000000008311171561045457600080fd5b91908080601f016020809104026020016040519081016040528093929190818152602001838380828437600081840152601f19601f820116905080830192505050505050509192919290505050610db9565b005b3480156104b457600080fd5b506104bd611089565b604051808263ffffffff1663ffffffff16815260200191505060405180910390f35b3480156104eb57600080fd5b506105186004803603602081101561050257600080fd5b810190808035906020019092919050505061109e565b604051808781526020018060200186815260200185815260200184151515158152602001838152602001828103825287818151815260200191508051906020019080838360005b8381101561057a57808201518184015260208101905061055f565b50505050905090810190601f1680156105a75780820380516001836020036101000a031916815260200191505b5097505050505050505060405180910390f35b3480156105c657600080fd5b506105f3600480360360208110156105dd57600080fd5b810190808035906020019092919050505061117f565b604051808273ffffffffffffffffffffffffffffffffffffffff1673ffffffffffffffffffffffffffffffffffffffff16815260200191505060405180910390f35b6000816040516020018082805190602001908083835b6020831061066e578051825260208201915060208101905060208303925061064b565b6001836020036101000a0380198251168184511680821785525050505050509050019150506040516020818303038152906040528051906020012060001c9050919050565b60006003600084815260200190815260200160002060006101000a81548173ffffffffffffffffffffffffffffffffffffffff021916908373ffffffffffffffffffffffffffffffffffffffff1602179055503373ffffffffffffffffffffffffffffffffffffffff166108fc829081150290604051600060405180830381858888f1935050505015801561074c573d6000803e3d6000fd5b50600460003373ffffffffffffffffffffffffffffffffffffffff1673ffffffffffffffffffffffffffffffffffffffff16815260200190815260200160002060008154809291906001900391905055505050565b60026000828152602001908152602001600020600301600081548092919060010191905055507f31c3816a4cce5f0190c68f97c85f3a1817fcc6e3e20111f014a38546e60e46f660026000838152602001908152602001600020600301546040518082815260200191505060405180910390a150565b6060806000809054906101000a900463ffffffff1663ffffffff166040519080825280602002602001820160405280156108605781602001602082028038833980820191505090505b50905060008090506000600190505b6000809054906101000a900463ffffffff1663ffffffff168111610923578473ffffffffffffffffffffffffffffffffffffffff166003600083815260200190815260200160002060009054906101000a900473ffffffffffffffffffffffffffffffffffffffff1673ffffffffffffffffffffffffffffffffffffffff161415610916578183828151811061090157fe5b60200260200101818152505081806001019250505b808060010191505061086f565b508192505050919050565b60048060003373ffffffffffffffffffffffffffffffffffffffff1673ffffffffffffffffffffffffffffffffffffffff16815260200190815260200160002054106109e2576040517f08c379a000000000000000000000000000000000000000000000000000000000815260040180806020018281038252601c8152602001807f596f752063616e206e6f742063726561746520616e79206d6f72652e0000000081525060200191505060405180910390fd5b60008081819054906101000a900463ffffffff168092919060010191906101000a81548163ffffffff021916908363ffffffff160217905550506000610a2782610635565b90506040518060c001604052806000809054906101000a900463ffffffff1663ffffffff168152602001838152602001828152602001600181526020016001151581526020016000815250600260008060009054906101000a900463ffffffff1663ffffffff168152602001908152602001600020600082015181600001556020820151816001019080519060200190610ac29291906111b2565b50604082015181600201556060820151816003015560808201518160040160006101000a81548160ff02191690831515021790555060a0820151816005015590505033600360008060009054906101000a900463ffffffff1663ffffffff16815260200190815260200160002060006101000a81548173ffffffffffffffffffffffffffffffffffffffff021916908373ffffffffffffffffffffffffffffffffffffffff160217905550600460003373ffffffffffffffffffffffffffffffffffffffff1673ffffffffffffffffffffffffffffffffffffffff168152602001908152602001600020600081548092919060010191905055507f7beba125339a9db22e6314c8b609dafb7531322be191d4da37c91d62043e7c236000809054906101000a900463ffffffff16836001604051808463ffffffff1663ffffffff16815260200180602001838152602001828103825284818151815260200191508051906020019080838360005b83811015610c4a578082015181840152602081019050610c2f565b50505050905090810190601f168015610c775780820380516001836020036101000a031916815260200191505b5094505050505060405180910390a15050565b600560009054906101000a900473ffffffffffffffffffffffffffffffffffffffff1681565b336003600084815260200190815260200160002060006101000a81548173ffffffffffffffffffffffffffffffffffffffff021916908373ffffffffffffffffffffffffffffffffffffffff160217905550600460007365ffed37eb64b33c3ac09ff181405dfa3e96205e73ffffffffffffffffffffffffffffffffffffffff1673ffffffffffffffffffffffffffffffffffffffff1681526020019081526020016000206000815480929190600190039190505550600460003373ffffffffffffffffffffffffffffffffffffffff1673ffffffffffffffffffffffffffffffffffffffff168152602001908152602001600020600081548092919060010191905055505050565b60008081819054906101000a900463ffffffff168092919060010191906101000a81548163ffffffff021916908363ffffffff160217905550506000610dfe82610635565b90506040518060c001604052806000809054906101000a900463ffffffff1663ffffffff168152602001838152602001828152602001600181526020016000151581526020016000815250600260008060009054906101000a900463ffffffff1663ffffffff168152602001908152602001600020600082015181600001556020820151816001019080519060200190610e999291906111b2565b50604082015181600201556060820151816003015560808201518160040160006101000a81548160ff02191690831515021790555060a082015181600501559050507365ffed37eb64b33c3ac09ff181405dfa3e96205e600360008060009054906101000a900463ffffffff1663ffffffff16815260200190815260200160002060006101000a81548173ffffffffffffffffffffffffffffffffffffffff021916908373ffffffffffffffffffffffffffffffffffffffff160217905550600460007365ffed37eb64b33c3ac09ff181405dfa3e96205e73ffffffffffffffffffffffffffffffffffffffff1673ffffffffffffffffffffffffffffffffffffffff168152602001908152602001600020600081548092919060010191905055507f7beba125339a9db22e6314c8b609dafb7531322be191d4da37c91d62043e7c236000809054906101000a900463ffffffff16836001604051808463ffffffff1663ffffffff16815260200180602001838152602001828103825284818151815260200191508051906020019080838360005b8381101561104957808201518184015260208101905061102e565b50505050905090810190601f1680156110765780820380516001836020036101000a031916815260200191505b5094505050505060405180910390a15050565b6000809054906101000a900463ffffffff1681565b6002602052806000526040600020600091509050806000015490806001018054600181600116156101000203166002900480601f0160208091040260200160405190810160405280929190818152602001828054600181600116156101000203166002900480156111505780601f1061112557610100808354040283529160200191611150565b820191906000526020600020905b81548152906001019060200180831161113357829003601f168201915b5050505050908060020154908060030154908060040160009054906101000a900460ff16908060050154905086565b60036020528060005260406000206000915054906101000a900473ffffffffffffffffffffffffffffffffffffffff1681565b828054600181600116156101000203166002900490600052602060002090601f016020900481019282601f106111f357805160ff1916838001178555611221565b82800160010185558215611221579182015b82811115611220578251825591602001919060010190611205565b5b50905061122e9190611232565b5090565b61125491905b80821115611250576000816000905550600101611238565b5090565b9056fea265627a7a723158202a92e70b9e1c62c17d741594d5e45ed83132a5aa420309517c1be03b9773ce6f64736f6c63430005100032",
  "source": "pragma solidity >=0.4.21 <0.7.0;\n\nimport \"./RegisterMonster.sol\";\n\ncontract BuyMonster is RegisterMonster {\n    address payable public owner;\n\n    function _BuyMonster(uint _id, uint _amount) public payable{\n        monsterToOwner[_id] = msg.sender;\n        ownerMonsterCount[0x65FfED37Eb64B33C3ac09ff181405dfa3e96205e]--;\n        ownerMonsterCount[msg.sender]++;\n    }\n\n    function SellMonster(uint _id, uint _amount) public payable{\n        monsterToOwner[_id] = 0x0000000000000000000000000000000000000000;\n        msg.sender.transfer(_amount);\n        ownerMonsterCount[msg.sender]--;\n    }\n}",
  "sourcePath": "/Users/hondaao/Desktop/solidity/truffle_box/contracts/BuyMonster.sol",
  "compiler": {
    "name": "solc",
    "version": "0.5.16+commit.9c3226ce.Emscripten.clang"
  },
  "schemaVersion": "3.3.3",
  "updatedAt": "2021-01-10T11:20:02.939Z",
  "devdoc": {
    "methods": {}
  },
  "userdoc": {
    "methods": {}
  }
}