{
  "contractName": "CreateMonster",
  "abi": [
    {
      "anonymous": false,
      "inputs": [
        {
          "indexed": false,
          "internalType": "uint256",
          "name": "level",
          "type": "uint256"
        }
      ],
      "name": "monsterLevelUp",
      "type": "event"
    },
    {
      "anonymous": false,
      "inputs": [
        {
          "indexed": false,
          "internalType": "uint32",
          "name": "monsterId",
          "type": "uint32"
        },
        {
          "indexed": false,
          "internalType": "string",
          "name": "monsterName",
          "type": "string"
        },
        {
          "indexed": false,
          "internalType": "uint256",
          "name": "level",
          "type": "uint256"
        }
      ],
      "name": "newMonster",
      "type": "event"
    },
    {
      "constant": true,
      "inputs": [],
      "name": "monsterCount",
      "outputs": [
        {
          "internalType": "uint32",
          "name": "",
          "type": "uint32"
        }
      ],
      "payable": false,
      "stateMutability": "view",
      "type": "function"
    },
    {
      "constant": true,
      "inputs": [
        {
          "internalType": "uint256",
          "name": "",
          "type": "uint256"
        }
      ],
      "name": "monsterToOwner",
      "outputs": [
        {
          "internalType": "address",
          "name": "",
          "type": "address"
        }
      ],
      "payable": false,
      "stateMutability": "view",
      "type": "function"
    },
    {
      "constant": true,
      "inputs": [
        {
          "internalType": "uint256",
          "name": "",
          "type": "uint256"
        }
      ],
      "name": "monsters",
      "outputs": [
        {
          "internalType": "uint256",
          "name": "monsterId",
          "type": "uint256"
        },
        {
          "internalType": "string",
          "name": "monsterName",
          "type": "string"
        },
        {
          "internalType": "uint256",
          "name": "number",
          "type": "uint256"
        },
        {
          "internalType": "uint256",
          "name": "level",
          "type": "uint256"
        },
        {
          "internalType": "bool",
          "name": "isOwned",
          "type": "bool"
        },
        {
          "internalType": "uint256",
          "name": "winCount",
          "type": "uint256"
        }
      ],
      "payable": false,
      "stateMutability": "view",
      "type": "function"
    },
    {
      "constant": true,
      "inputs": [
        {
          "internalType": "string",
          "name": "_monsterName",
          "type": "string"
        }
      ],
      "name": "_getNumber",
      "outputs": [
        {
          "internalType": "uint256",
          "name": "",
          "type": "uint256"
        }
      ],
      "payable": false,
      "stateMutability": "view",
      "type": "function"
    },
    {
      "constant": true,
      "inputs": [
        {
          "internalType": "address",
          "name": "_owner",
          "type": "address"
        }
      ],
      "name": "MyMonster",
      "outputs": [
        {
          "internalType": "uint256[]",
          "name": "",
          "type": "uint256[]"
        }
      ],
      "payable": false,
      "stateMutability": "view",
      "type": "function"
    },
    {
      "constant": false,
      "inputs": [
        {
          "internalType": "string",
          "name": "_monsterName",
          "type": "string"
        }
      ],
      "name": "_CreateMonster",
      "outputs": [],
      "payable": false,
      "stateMutability": "nonpayable",
      "type": "function"
    },
    {
      "constant": false,
      "inputs": [
        {
          "internalType": "uint256",
          "name": "_id",
          "type": "uint256"
        }
      ],
      "name": "LevelUp",
      "outputs": [],
      "payable": true,
      "stateMutability": "payable",
      "type": "function"
    }
  ],
  "bytecode": "0x60806040526611c37937e0800060015534801561001b57600080fd5b50610be48061002b6000396000f3fe6080604052600436106100705760003560e01c8063864c3dd91161004e578063864c3dd914610225578063b693bff8146102ed578063c0576b7314610324578063c21ca275146103ff57610070565b806344241ca5146100755780636a1b6f911461015157806382d683691461017f575b600080fd5b34801561008157600080fd5b5061013b6004803603602081101561009857600080fd5b81019080803590602001906401000000008111156100b557600080fd5b8201836020820111156100c757600080fd5b803590602001918460018302840111640100000000831117156100e957600080fd5b91908080601f016020809104026020016040519081016040528093929190818152602001838380828437600081840152601f19601f82011690508083019250505050505050919291929050505061047a565b6040518082815260200191505060405180910390f35b61017d6004803603602081101561016757600080fd5b81019080803590602001909291905050506104f8565b005b34801561018b57600080fd5b506101ce600480360360208110156101a257600080fd5b81019080803573ffffffffffffffffffffffffffffffffffffffff16906020019092919050505061056e565b6040518080602001828103825283818151815260200191508051906020019060200280838360005b838110156102115780820151818401526020810190506101f6565b505050509050019250505060405180910390f35b34801561023157600080fd5b506102eb6004803603602081101561024857600080fd5b810190808035906020019064010000000081111561026557600080fd5b82018360208201111561027757600080fd5b8035906020019184600183028401116401000000008311171561029957600080fd5b91908080601f016020809104026020016040519081016040528093929190818152602001838380828437600081840152601f19601f820116905080830192505050505050509192919290505050610685565b005b3480156102f957600080fd5b506103026109e1565b604051808263ffffffff1663ffffffff16815260200191505060405180910390f35b34801561033057600080fd5b5061035d6004803603602081101561034757600080fd5b81019080803590602001909291905050506109f6565b604051808781526020018060200186815260200185815260200184151515158152602001838152602001828103825287818151815260200191508051906020019080838360005b838110156103bf5780820151818401526020810190506103a4565b50505050905090810190601f1680156103ec5780820380516001836020036101000a031916815260200191505b5097505050505050505060405180910390f35b34801561040b57600080fd5b506104386004803603602081101561042257600080fd5b8101908080359060200190929190505050610ad7565b604051808273ffffffffffffffffffffffffffffffffffffffff1673ffffffffffffffffffffffffffffffffffffffff16815260200191505060405180910390f35b6000816040516020018082805190602001908083835b602083106104b35780518252602082019150602081019050602083039250610490565b6001836020036101000a0380198251168184511680821785525050505050509050019150506040516020818303038152906040528051906020012060001c9050919050565b60026000828152602001908152602001600020600301600081548092919060010191905055507f31c3816a4cce5f0190c68f97c85f3a1817fcc6e3e20111f014a38546e60e46f660026000838152602001908152602001600020600301546040518082815260200191505060405180910390a150565b6060806000809054906101000a900463ffffffff1663ffffffff166040519080825280602002602001820160405280156105b75781602001602082028038833980820191505090505b50905060008090506000600190505b6000809054906101000a900463ffffffff1663ffffffff16811161067a578473ffffffffffffffffffffffffffffffffffffffff166003600083815260200190815260200160002060009054906101000a900473ffffffffffffffffffffffffffffffffffffffff1673ffffffffffffffffffffffffffffffffffffffff16141561066d578183828151811061065857fe5b60200260200101818152505081806001019250505b80806001019150506105c6565b508192505050919050565b60048060003373ffffffffffffffffffffffffffffffffffffffff1673ffffffffffffffffffffffffffffffffffffffff1681526020019081526020016000205410610739576040517f08c379a000000000000000000000000000000000000000000000000000000000815260040180806020018281038252601c8152602001807f596f752063616e206e6f742063726561746520616e79206d6f72652e0000000081525060200191505060405180910390fd5b60008081819054906101000a900463ffffffff168092919060010191906101000a81548163ffffffff021916908363ffffffff16021790555050600061077e8261047a565b90506040518060c001604052806000809054906101000a900463ffffffff1663ffffffff168152602001838152602001828152602001600181526020016001151581526020016000815250600260008060009054906101000a900463ffffffff1663ffffffff168152602001908152602001600020600082015181600001556020820151816001019080519060200190610819929190610b0a565b50604082015181600201556060820151816003015560808201518160040160006101000a81548160ff02191690831515021790555060a0820151816005015590505033600360008060009054906101000a900463ffffffff1663ffffffff16815260200190815260200160002060006101000a81548173ffffffffffffffffffffffffffffffffffffffff021916908373ffffffffffffffffffffffffffffffffffffffff160217905550600460003373ffffffffffffffffffffffffffffffffffffffff1673ffffffffffffffffffffffffffffffffffffffff168152602001908152602001600020600081548092919060010191905055507f7beba125339a9db22e6314c8b609dafb7531322be191d4da37c91d62043e7c236000809054906101000a900463ffffffff16836001604051808463ffffffff1663ffffffff16815260200180602001838152602001828103825284818151815260200191508051906020019080838360005b838110156109a1578082015181840152602081019050610986565b50505050905090810190601f1680156109ce5780820380516001836020036101000a031916815260200191505b5094505050505060405180910390a15050565b6000809054906101000a900463ffffffff1681565b6002602052806000526040600020600091509050806000015490806001018054600181600116156101000203166002900480601f016020809104026020016040519081016040528092919081815260200182805460018160011615610100020316600290048015610aa85780601f10610a7d57610100808354040283529160200191610aa8565b820191906000526020600020905b815481529060010190602001808311610a8b57829003601f168201915b5050505050908060020154908060030154908060040160009054906101000a900460ff16908060050154905086565b60036020528060005260406000206000915054906101000a900473ffffffffffffffffffffffffffffffffffffffff1681565b828054600181600116156101000203166002900490600052602060002090601f016020900481019282601f10610b4b57805160ff1916838001178555610b79565b82800160010185558215610b79579182015b82811115610b78578251825591602001919060010190610b5d565b5b509050610b869190610b8a565b5090565b610bac91905b80821115610ba8576000816000905550600101610b90565b5090565b9056fea265627a7a72315820b07a984c1e8146b2e7305264ec8b469349c17163443dab367dac0df9567815c364736f6c63430005100032",
  "source": "pragma solidity >=0.4.21 <0.7.0;\n\ncontract CreateMonster {\n    event newMonster(uint32 monsterId, string monsterName, uint level);\n    event monsterLevelUp(uint level);\n    uint32 public monsterCount;\n    uint levelUpCost = 0.005 ether;\n    mapping(uint => Monster) public monsters;\n    struct Monster{\n        uint monsterId;\n        string monsterName;\n        uint number;\n        uint level;\n        bool isOwned;\n        uint winCount;\n    }\n    mapping (uint => address) public monsterToOwner;\n    mapping (address => uint) ownerMonsterCount;\n\n    function _getNumber(string memory _monsterName) public view returns (uint) {\n        return uint(keccak256(abi.encodePacked(_monsterName)));\n    }\n\n    function MyMonster(address _owner) external view returns (uint[] memory){\n        uint[] memory result = new uint[](monsterCount);\n        uint counter = 0;\n        for(uint i=1; i <= monsterCount; i++){\n            if(monsterToOwner[i] == _owner){\n                result[i] = counter;\n                counter++;\n            }\n        }\n        return result;\n    }\n\n    function _CreateMonster(string memory _monsterName) public {\n        require(ownerMonsterCount[msg.sender] < 4,\"You can not create any more.\");\n        monsterCount++;\n        uint _number = _getNumber(_monsterName);\n        monsters[monsterCount] = Monster(monsterCount, _monsterName, _number, 1, true, 0);\n        monsterToOwner[monsterCount] = msg.sender;\n        ownerMonsterCount[msg.sender]++;\n        emit newMonster(monsterCount, _monsterName, 1);\n    }\n\n    function LevelUp(uint _id) external payable{\n        monsters[_id].level++;\n        emit monsterLevelUp(monsters[_id].level);\n    }\n}",
  "sourcePath": "/Users/hondaao/Desktop/solidity/truffle_box/contracts/CreateMonster.sol",
  "compiler": {
    "name": "solc",
    "version": "0.5.16+commit.9c3226ce.Emscripten.clang"
  },
  "schemaVersion": "3.3.3",
  "updatedAt": "2021-01-10T11:15:36.483Z",
  "devdoc": {
    "methods": {}
  },
  "userdoc": {
    "methods": {}
  }
}