{
  "contractName": "CreateMonster",
  "abi": [
    {
      "anonymous": false,
      "inputs": [
        {
          "indexed": false,
          "internalType": "uint256",
          "name": "level",
          "type": "uint256"
        }
      ],
      "name": "monsterLevelUp",
      "type": "event"
    },
    {
      "anonymous": false,
      "inputs": [
        {
          "indexed": false,
          "internalType": "uint32",
          "name": "monsterId",
          "type": "uint32"
        },
        {
          "indexed": false,
          "internalType": "string",
          "name": "monsterName",
          "type": "string"
        },
        {
          "indexed": false,
          "internalType": "uint256",
          "name": "level",
          "type": "uint256"
        }
      ],
      "name": "newMonster",
      "type": "event"
    },
    {
      "constant": true,
      "inputs": [],
      "name": "monsterCount",
      "outputs": [
        {
          "internalType": "uint32",
          "name": "",
          "type": "uint32"
        }
      ],
      "payable": false,
      "stateMutability": "view",
      "type": "function"
    },
    {
      "constant": true,
      "inputs": [
        {
          "internalType": "uint256",
          "name": "",
          "type": "uint256"
        }
      ],
      "name": "monsterToOwner",
      "outputs": [
        {
          "internalType": "address",
          "name": "",
          "type": "address"
        }
      ],
      "payable": false,
      "stateMutability": "view",
      "type": "function"
    },
    {
      "constant": true,
      "inputs": [
        {
          "internalType": "uint256",
          "name": "",
          "type": "uint256"
        }
      ],
      "name": "monsters",
      "outputs": [
        {
          "internalType": "uint256",
          "name": "monsterId",
          "type": "uint256"
        },
        {
          "internalType": "string",
          "name": "monsterName",
          "type": "string"
        },
        {
          "internalType": "uint256",
          "name": "number",
          "type": "uint256"
        },
        {
          "internalType": "uint256",
          "name": "level",
          "type": "uint256"
        },
        {
          "internalType": "bool",
          "name": "isOwned",
          "type": "bool"
        }
      ],
      "payable": false,
      "stateMutability": "view",
      "type": "function"
    },
    {
      "constant": false,
      "inputs": [
        {
          "internalType": "string",
          "name": "_monsterName",
          "type": "string"
        }
      ],
      "name": "_CreateMonster",
      "outputs": [],
      "payable": false,
      "stateMutability": "nonpayable",
      "type": "function"
    },
    {
      "constant": false,
      "inputs": [
        {
          "internalType": "uint256",
          "name": "_id",
          "type": "uint256"
        }
      ],
      "name": "LevelUp",
      "outputs": [],
      "payable": true,
      "stateMutability": "payable",
      "type": "function"
    },
    {
      "constant": false,
      "inputs": [
        {
          "internalType": "uint256",
          "name": "_id",
          "type": "uint256"
        }
      ],
      "name": "BuyMonster",
      "outputs": [],
      "payable": true,
      "stateMutability": "payable",
      "type": "function"
    }
  ],
  "bytecode": "0x6080604052662386f26fc100006000556611c37937e0800060015534801561002657600080fd5b50610990806100366000396000f3fe6080604052600436106100555760003560e01c80636a1b6f911461005a578063864c3dd91461008857806398a01e5614610150578063b693bff81461017e578063c0576b73146101b5578063c21ca27514610289575b600080fd5b6100866004803603602081101561007057600080fd5b8101908080359060200190929190505050610304565b005b34801561009457600080fd5b5061014e600480360360208110156100ab57600080fd5b81019080803590602001906401000000008111156100c857600080fd5b8201836020820111156100da57600080fd5b803590602001918460018302840111640100000000831117156100fc57600080fd5b91908080601f016020809104026020016040519081016040528093929190818152602001838380828437600081840152601f19601f82011690508083019250505050505050919291929050505061037a565b005b61017c6004803603602081101561016657600080fd5b8101908080359060200190929190505050610662565b005b34801561018a57600080fd5b50610193610714565b604051808263ffffffff1663ffffffff16815260200191505060405180910390f35b3480156101c157600080fd5b506101ee600480360360208110156101d857600080fd5b810190808035906020019092919050505061072a565b604051808681526020018060200185815260200184815260200183151515158152602001828103825286818151815260200191508051906020019080838360005b8381101561024a57808201518184015260208101905061022f565b50505050905090810190601f1680156102775780820380516001836020036101000a031916815260200191505b50965050505050505060405180910390f35b34801561029557600080fd5b506102c2600480360360208110156102ac57600080fd5b8101908080359060200190929190505050610805565b604051808273ffffffffffffffffffffffffffffffffffffffff1673ffffffffffffffffffffffffffffffffffffffff16815260200191505060405180910390f35b60036000828152602001908152602001600020600301600081548092919060010191905055507f31c3816a4cce5f0190c68f97c85f3a1817fcc6e3e20111f014a38546e60e46f660036000838152602001908152602001600020600301546040518082815260200191505060405180910390a150565b6004600560003373ffffffffffffffffffffffffffffffffffffffff1673ffffffffffffffffffffffffffffffffffffffff16815260200190815260200160002054106103c657600080fd5b6002600081819054906101000a900463ffffffff168092919060010191906101000a81548163ffffffff021916908363ffffffff16021790555050600061040c82610838565b90506040518060a00160405280600260009054906101000a900463ffffffff1663ffffffff168152602001838152602001828152602001600181526020016001151581525060036000600260009054906101000a900463ffffffff1663ffffffff1681526020019081526020016000206000820151816000015560208201518160010190805190602001906104a29291906108b6565b50604082015181600201556060820151816003015560808201518160040160006101000a81548160ff0219169083151502179055509050503360046000600260009054906101000a900463ffffffff1663ffffffff16815260200190815260200160002060006101000a81548173ffffffffffffffffffffffffffffffffffffffff021916908373ffffffffffffffffffffffffffffffffffffffff160217905550600560003373ffffffffffffffffffffffffffffffffffffffff1673ffffffffffffffffffffffffffffffffffffffff168152602001908152602001600020600081548092919060010191905055507f7beba125339a9db22e6314c8b609dafb7531322be191d4da37c91d62043e7c23600260009054906101000a900463ffffffff16836001604051808463ffffffff1663ffffffff16815260200180602001838152602001828103825284818151815260200191508051906020019080838360005b83811015610622578082015181840152602081019050610607565b50505050905090810190601f16801561064f5780820380516001836020036101000a031916815260200191505b5094505050505060405180910390a15050565b600054341461067057600080fd5b336004600083815260200190815260200160002060006101000a81548173ffffffffffffffffffffffffffffffffffffffff021916908373ffffffffffffffffffffffffffffffffffffffff160217905550600560003373ffffffffffffffffffffffffffffffffffffffff1673ffffffffffffffffffffffffffffffffffffffff1681526020019081526020016000206000815480929190600101919050555050565b600260009054906101000a900463ffffffff1681565b6003602052806000526040600020600091509050806000015490806001018054600181600116156101000203166002900480601f0160208091040260200160405190810160405280929190818152602001828054600181600116156101000203166002900480156107dc5780601f106107b1576101008083540402835291602001916107dc565b820191906000526020600020905b8154815290600101906020018083116107bf57829003601f168201915b5050505050908060020154908060030154908060040160009054906101000a900460ff16905085565b60046020528060005260406000206000915054906101000a900473ffffffffffffffffffffffffffffffffffffffff1681565b6000816040516020018082805190602001908083835b60208310610871578051825260208201915060208101905060208303925061084e565b6001836020036101000a0380198251168184511680821785525050505050509050019150506040516020818303038152906040528051906020012060001c9050919050565b828054600181600116156101000203166002900490600052602060002090601f016020900481019282601f106108f757805160ff1916838001178555610925565b82800160010185558215610925579182015b82811115610924578251825591602001919060010190610909565b5b5090506109329190610936565b5090565b61095891905b8082111561095457600081600090555060010161093c565b5090565b9056fea265627a7a72315820d328dcbc694b4e57141715ca9df8000d97446ec5c715eee2fc9aa9fa28a0582c64736f6c63430005100032",
  "source": "pragma solidity >=0.4.21 <0.7.0;\n\ncontract CreateMonster {\n    event newMonster(uint32 monsterId, string monsterName, uint level);\n    event monsterLevelUp(uint level);\n    uint cost = 0.01 ether;\n    uint levelUpCost = 0.005 ether;\n    uint32 public monsterCount;\n    mapping(uint => Monster) public monsters;\n    struct Monster{\n        uint monsterId;\n        string monsterName;\n        uint number;\n        uint level;\n        bool isOwned;\n    }\n    mapping (uint => address) public monsterToOwner;\n    mapping (address => uint) ownerMonsterCount;\n\n    function _getNumber(string memory _monsterName) private view returns (uint) {\n        return uint(keccak256(abi.encodePacked(_monsterName)));\n    }\n\n    function _CreateMonster(string memory _monsterName) public {\n        require(ownerMonsterCount[msg.sender] < 4);\n        monsterCount++;\n        uint _number = _getNumber(_monsterName);\n        monsters[monsterCount] = Monster(monsterCount, _monsterName, _number, 1, true);\n        monsterToOwner[monsterCount] = msg.sender;\n        ownerMonsterCount[msg.sender]++;\n        emit newMonster(monsterCount, _monsterName, 1);\n    }\n\n    function RegisterMonster(string memory _monsterName) private {\n        monsterCount++;\n        uint _number = _getNumber(_monsterName);\n        monsters[monsterCount] = Monster(monsterCount, _monsterName, _number, 1, false);\n        emit newMonster(monsterCount, _monsterName, 1);\n    }\n\n    function LevelUp(uint _id) public payable{\n        monsters[_id].level++;\n        emit monsterLevelUp(monsters[_id].level);\n    }\n\n    function BuyMonster(uint _id) public payable {\n        require(msg.value == cost);\n        monsterToOwner[_id] = msg.sender;\n        ownerMonsterCount[msg.sender]++;\n    }\n}",
  "sourcePath": "/Users/hondaao/Desktop/solidity/truffle_box/contracts/CreateMonster.sol",
  "compiler": {
    "name": "solc",
    "version": "0.5.16+commit.9c3226ce.Emscripten.clang"
  },
  "schemaVersion": "3.3.3",
  "updatedAt": "2021-01-08T11:56:44.357Z",
  "networkType": "ethereum",
  "devdoc": {
    "methods": {}
  },
  "userdoc": {
    "methods": {}
  }
}