{
  "contractName": "RegisterMonster",
  "abi": [
    {
      "anonymous": false,
      "inputs": [
        {
          "indexed": false,
          "internalType": "uint256",
          "name": "level",
          "type": "uint256"
        }
      ],
      "name": "monsterLevelUp",
      "type": "event"
    },
    {
      "anonymous": false,
      "inputs": [
        {
          "indexed": false,
          "internalType": "uint32",
          "name": "monsterId",
          "type": "uint32"
        },
        {
          "indexed": false,
          "internalType": "string",
          "name": "monsterName",
          "type": "string"
        },
        {
          "indexed": false,
          "internalType": "uint256",
          "name": "level",
          "type": "uint256"
        }
      ],
      "name": "newMonster",
      "type": "event"
    },
    {
      "constant": false,
      "inputs": [
        {
          "internalType": "uint256",
          "name": "_id",
          "type": "uint256"
        }
      ],
      "name": "LevelUp",
      "outputs": [],
      "payable": true,
      "stateMutability": "payable",
      "type": "function"
    },
    {
      "constant": true,
      "inputs": [
        {
          "internalType": "address",
          "name": "_owner",
          "type": "address"
        }
      ],
      "name": "MyMonster",
      "outputs": [
        {
          "internalType": "uint256[]",
          "name": "",
          "type": "uint256[]"
        }
      ],
      "payable": false,
      "stateMutability": "view",
      "type": "function"
    },
    {
      "constant": false,
      "inputs": [
        {
          "internalType": "string",
          "name": "_monsterName",
          "type": "string"
        }
      ],
      "name": "_CreateMonster",
      "outputs": [],
      "payable": false,
      "stateMutability": "nonpayable",
      "type": "function"
    },
    {
      "constant": true,
      "inputs": [
        {
          "internalType": "string",
          "name": "_monsterName",
          "type": "string"
        }
      ],
      "name": "_getNumber",
      "outputs": [
        {
          "internalType": "uint256",
          "name": "",
          "type": "uint256"
        }
      ],
      "payable": false,
      "stateMutability": "view",
      "type": "function"
    },
    {
      "constant": true,
      "inputs": [],
      "name": "monsterCount",
      "outputs": [
        {
          "internalType": "uint32",
          "name": "",
          "type": "uint32"
        }
      ],
      "payable": false,
      "stateMutability": "view",
      "type": "function"
    },
    {
      "constant": true,
      "inputs": [
        {
          "internalType": "uint256",
          "name": "",
          "type": "uint256"
        }
      ],
      "name": "monsterToOwner",
      "outputs": [
        {
          "internalType": "address",
          "name": "",
          "type": "address"
        }
      ],
      "payable": false,
      "stateMutability": "view",
      "type": "function"
    },
    {
      "constant": true,
      "inputs": [
        {
          "internalType": "uint256",
          "name": "",
          "type": "uint256"
        }
      ],
      "name": "monsters",
      "outputs": [
        {
          "internalType": "uint256",
          "name": "monsterId",
          "type": "uint256"
        },
        {
          "internalType": "string",
          "name": "monsterName",
          "type": "string"
        },
        {
          "internalType": "uint256",
          "name": "number",
          "type": "uint256"
        },
        {
          "internalType": "uint256",
          "name": "level",
          "type": "uint256"
        },
        {
          "internalType": "bool",
          "name": "isOwned",
          "type": "bool"
        },
        {
          "internalType": "uint256",
          "name": "winCount",
          "type": "uint256"
        }
      ],
      "payable": false,
      "stateMutability": "view",
      "type": "function"
    },
    {
      "constant": false,
      "inputs": [
        {
          "internalType": "string",
          "name": "_monsterName",
          "type": "string"
        }
      ],
      "name": "_RegisterMonster",
      "outputs": [],
      "payable": false,
      "stateMutability": "nonpayable",
      "type": "function"
    }
  ],
  "bytecode": "0x60806040526611c37937e0800060015534801561001b57600080fd5b50610f878061002b6000396000f3fe60806040526004361061007b5760003560e01c8063a5e4b1561161004e578063a5e4b156146102f8578063b693bff8146103c0578063c0576b73146103f7578063c21ca275146104d25761007b565b806344241ca5146100805780636a1b6f911461015c57806382d683691461018a578063864c3dd914610230575b600080fd5b34801561008c57600080fd5b50610146600480360360208110156100a357600080fd5b81019080803590602001906401000000008111156100c057600080fd5b8201836020820111156100d257600080fd5b803590602001918460018302840111640100000000831117156100f457600080fd5b91908080601f016020809104026020016040519081016040528093929190818152602001838380828437600081840152601f19601f82011690508083019250505050505050919291929050505061054d565b6040518082815260200191505060405180910390f35b6101886004803603602081101561017257600080fd5b81019080803590602001909291905050506105cb565b005b34801561019657600080fd5b506101d9600480360360208110156101ad57600080fd5b81019080803573ffffffffffffffffffffffffffffffffffffffff169060200190929190505050610641565b6040518080602001828103825283818151815260200191508051906020019060200280838360005b8381101561021c578082015181840152602081019050610201565b505050509050019250505060405180910390f35b34801561023c57600080fd5b506102f66004803603602081101561025357600080fd5b810190808035906020019064010000000081111561027057600080fd5b82018360208201111561028257600080fd5b803590602001918460018302840111640100000000831117156102a457600080fd5b91908080601f016020809104026020016040519081016040528093929190818152602001838380828437600081840152601f19601f820116905080830192505050505050509192919290505050610758565b005b34801561030457600080fd5b506103be6004803603602081101561031b57600080fd5b810190808035906020019064010000000081111561033857600080fd5b82018360208201111561034a57600080fd5b8035906020019184600183028401116401000000008311171561036c57600080fd5b91908080601f016020809104026020016040519081016040528093929190818152602001838380828437600081840152601f19601f820116905080830192505050505050509192919290505050610ab4565b005b3480156103cc57600080fd5b506103d5610d84565b604051808263ffffffff1663ffffffff16815260200191505060405180910390f35b34801561040357600080fd5b506104306004803603602081101561041a57600080fd5b8101908080359060200190929190505050610d99565b604051808781526020018060200186815260200185815260200184151515158152602001838152602001828103825287818151815260200191508051906020019080838360005b83811015610492578082015181840152602081019050610477565b50505050905090810190601f1680156104bf5780820380516001836020036101000a031916815260200191505b5097505050505050505060405180910390f35b3480156104de57600080fd5b5061050b600480360360208110156104f557600080fd5b8101908080359060200190929190505050610e7a565b604051808273ffffffffffffffffffffffffffffffffffffffff1673ffffffffffffffffffffffffffffffffffffffff16815260200191505060405180910390f35b6000816040516020018082805190602001908083835b602083106105865780518252602082019150602081019050602083039250610563565b6001836020036101000a0380198251168184511680821785525050505050509050019150506040516020818303038152906040528051906020012060001c9050919050565b60026000828152602001908152602001600020600301600081548092919060010191905055507f31c3816a4cce5f0190c68f97c85f3a1817fcc6e3e20111f014a38546e60e46f660026000838152602001908152602001600020600301546040518082815260200191505060405180910390a150565b6060806000809054906101000a900463ffffffff1663ffffffff1660405190808252806020026020018201604052801561068a5781602001602082028038833980820191505090505b50905060008090506000600190505b6000809054906101000a900463ffffffff1663ffffffff16811161074d578473ffffffffffffffffffffffffffffffffffffffff166003600083815260200190815260200160002060009054906101000a900473ffffffffffffffffffffffffffffffffffffffff1673ffffffffffffffffffffffffffffffffffffffff161415610740578183828151811061072b57fe5b60200260200101818152505081806001019250505b8080600101915050610699565b508192505050919050565b60048060003373ffffffffffffffffffffffffffffffffffffffff1673ffffffffffffffffffffffffffffffffffffffff168152602001908152602001600020541061080c576040517f08c379a000000000000000000000000000000000000000000000000000000000815260040180806020018281038252601c8152602001807f596f752063616e206e6f742063726561746520616e79206d6f72652e0000000081525060200191505060405180910390fd5b60008081819054906101000a900463ffffffff168092919060010191906101000a81548163ffffffff021916908363ffffffff1602179055505060006108518261054d565b90506040518060c001604052806000809054906101000a900463ffffffff1663ffffffff168152602001838152602001828152602001600181526020016001151581526020016000815250600260008060009054906101000a900463ffffffff1663ffffffff1681526020019081526020016000206000820151816000015560208201518160010190805190602001906108ec929190610ead565b50604082015181600201556060820151816003015560808201518160040160006101000a81548160ff02191690831515021790555060a0820151816005015590505033600360008060009054906101000a900463ffffffff1663ffffffff16815260200190815260200160002060006101000a81548173ffffffffffffffffffffffffffffffffffffffff021916908373ffffffffffffffffffffffffffffffffffffffff160217905550600460003373ffffffffffffffffffffffffffffffffffffffff1673ffffffffffffffffffffffffffffffffffffffff168152602001908152602001600020600081548092919060010191905055507f7beba125339a9db22e6314c8b609dafb7531322be191d4da37c91d62043e7c236000809054906101000a900463ffffffff16836001604051808463ffffffff1663ffffffff16815260200180602001838152602001828103825284818151815260200191508051906020019080838360005b83811015610a74578082015181840152602081019050610a59565b50505050905090810190601f168015610aa15780820380516001836020036101000a031916815260200191505b5094505050505060405180910390a15050565b60008081819054906101000a900463ffffffff168092919060010191906101000a81548163ffffffff021916908363ffffffff160217905550506000610af98261054d565b90506040518060c001604052806000809054906101000a900463ffffffff1663ffffffff168152602001838152602001828152602001600181526020016000151581526020016000815250600260008060009054906101000a900463ffffffff1663ffffffff168152602001908152602001600020600082015181600001556020820151816001019080519060200190610b94929190610ead565b50604082015181600201556060820151816003015560808201518160040160006101000a81548160ff02191690831515021790555060a082015181600501559050507365ffed37eb64b33c3ac09ff181405dfa3e96205e600360008060009054906101000a900463ffffffff1663ffffffff16815260200190815260200160002060006101000a81548173ffffffffffffffffffffffffffffffffffffffff021916908373ffffffffffffffffffffffffffffffffffffffff160217905550600460007365ffed37eb64b33c3ac09ff181405dfa3e96205e73ffffffffffffffffffffffffffffffffffffffff1673ffffffffffffffffffffffffffffffffffffffff168152602001908152602001600020600081548092919060010191905055507f7beba125339a9db22e6314c8b609dafb7531322be191d4da37c91d62043e7c236000809054906101000a900463ffffffff16836001604051808463ffffffff1663ffffffff16815260200180602001838152602001828103825284818151815260200191508051906020019080838360005b83811015610d44578082015181840152602081019050610d29565b50505050905090810190601f168015610d715780820380516001836020036101000a031916815260200191505b5094505050505060405180910390a15050565b6000809054906101000a900463ffffffff1681565b6002602052806000526040600020600091509050806000015490806001018054600181600116156101000203166002900480601f016020809104026020016040519081016040528092919081815260200182805460018160011615610100020316600290048015610e4b5780601f10610e2057610100808354040283529160200191610e4b565b820191906000526020600020905b815481529060010190602001808311610e2e57829003601f168201915b5050505050908060020154908060030154908060040160009054906101000a900460ff16908060050154905086565b60036020528060005260406000206000915054906101000a900473ffffffffffffffffffffffffffffffffffffffff1681565b828054600181600116156101000203166002900490600052602060002090601f016020900481019282601f10610eee57805160ff1916838001178555610f1c565b82800160010185558215610f1c579182015b82811115610f1b578251825591602001919060010190610f00565b5b509050610f299190610f2d565b5090565b610f4f91905b80821115610f4b576000816000905550600101610f33565b5090565b9056fea265627a7a72315820d9f90aa6b16c2810b4d39ac1e2381c2ef36554ee69d993d7d180a3adff296aa164736f6c63430005100032",
  "source": "pragma solidity >=0.4.21 <0.7.0;\n\nimport \"./CreateMonster.sol\";\n\ncontract RegisterMonster is CreateMonster {\n    function _RegisterMonster(string memory _monsterName) public {\n          monsterCount++;\n          uint _number = _getNumber(_monsterName);\n          monsters[monsterCount] = Monster(monsterCount, _monsterName, _number, 1, false, 0);\n          monsterToOwner[monsterCount] = 0x65FfED37Eb64B33C3ac09ff181405dfa3e96205e;\n          ownerMonsterCount[0x65FfED37Eb64B33C3ac09ff181405dfa3e96205e]++;\n          emit newMonster(monsterCount, _monsterName, 1);\n    }\n\n}",
  "sourcePath": "/Users/hondaao/Desktop/solidity/truffle_box/contracts/RegisterMonster.sol",
  "compiler": {
    "name": "solc",
    "version": "0.5.16+commit.9c3226ce.Emscripten.clang"
  },
  "schemaVersion": "3.3.3",
  "updatedAt": "2021-01-10T11:20:02.942Z",
  "devdoc": {
    "methods": {}
  },
  "userdoc": {
    "methods": {}
  }
}